{
    "_format": "hh-sol-artifact-1",
    "contractName": "AvalancheNFT",
    "sourceName": "contracts/AvalancheNFT.sol",
    "abi": [
        {
            "inputs": [],
            "stateMutability": "payable",
            "type": "constructor"
        },
        {
            "anonymous": false,
            "inputs": [
                {
                    "indexed": true,
                    "internalType": "address",
                    "name": "owner",
                    "type": "address"
                },
                {
                    "indexed": true,
                    "internalType": "address",
                    "name": "approved",
                    "type": "address"
                },
                {
                    "indexed": true,
                    "internalType": "uint256",
                    "name": "tokenId",
                    "type": "uint256"
                }
            ],
            "name": "Approval",
            "type": "event"
        },
        {
            "anonymous": false,
            "inputs": [
                {
                    "indexed": true,
                    "internalType": "address",
                    "name": "owner",
                    "type": "address"
                },
                {
                    "indexed": true,
                    "internalType": "address",
                    "name": "operator",
                    "type": "address"
                },
                {
                    "indexed": false,
                    "internalType": "bool",
                    "name": "approved",
                    "type": "bool"
                }
            ],
            "name": "ApprovalForAll",
            "type": "event"
        },
        {
            "anonymous": false,
            "inputs": [
                {
                    "indexed": true,
                    "internalType": "address",
                    "name": "previousOwner",
                    "type": "address"
                },
                {
                    "indexed": true,
                    "internalType": "address",
                    "name": "newOwner",
                    "type": "address"
                }
            ],
            "name": "OwnershipTransferred",
            "type": "event"
        },
        {
            "anonymous": false,
            "inputs": [
                {
                    "indexed": true,
                    "internalType": "address",
                    "name": "from",
                    "type": "address"
                },
                {
                    "indexed": true,
                    "internalType": "address",
                    "name": "to",
                    "type": "address"
                },
                {
                    "indexed": true,
                    "internalType": "uint256",
                    "name": "tokenId",
                    "type": "uint256"
                }
            ],
            "name": "Transfer",
            "type": "event"
        },
        {
            "inputs": [
                {
                    "internalType": "address",
                    "name": "to",
                    "type": "address"
                },
                {
                    "internalType": "uint256",
                    "name": "tokenId",
                    "type": "uint256"
                }
            ],
            "name": "approve",
            "outputs": [],
            "stateMutability": "nonpayable",
            "type": "function"
        },
        {
            "inputs": [
                {
                    "internalType": "address",
                    "name": "owner",
                    "type": "address"
                }
            ],
            "name": "balanceOf",
            "outputs": [
                {
                    "internalType": "uint256",
                    "name": "",
                    "type": "uint256"
                }
            ],
            "stateMutability": "view",
            "type": "function"
        },
        {
            "inputs": [
                {
                    "internalType": "uint256",
                    "name": "tokenId",
                    "type": "uint256"
                }
            ],
            "name": "getApproved",
            "outputs": [
                {
                    "internalType": "address",
                    "name": "",
                    "type": "address"
                }
            ],
            "stateMutability": "view",
            "type": "function"
        },
        {
            "inputs": [
                {
                    "internalType": "address",
                    "name": "owner",
                    "type": "address"
                },
                {
                    "internalType": "address",
                    "name": "operator",
                    "type": "address"
                }
            ],
            "name": "isApprovedForAll",
            "outputs": [
                {
                    "internalType": "bool",
                    "name": "",
                    "type": "bool"
                }
            ],
            "stateMutability": "view",
            "type": "function"
        },
        {
            "inputs": [],
            "name": "isPublicMintEnabled",
            "outputs": [
                {
                    "internalType": "bool",
                    "name": "",
                    "type": "bool"
                }
            ],
            "stateMutability": "view",
            "type": "function"
        },
        {
            "inputs": [],
            "name": "maxPerWallet",
            "outputs": [
                {
                    "internalType": "uint256",
                    "name": "",
                    "type": "uint256"
                }
            ],
            "stateMutability": "view",
            "type": "function"
        },
        {
            "inputs": [],
            "name": "maxSupply",
            "outputs": [
                {
                    "internalType": "uint256",
                    "name": "",
                    "type": "uint256"
                }
            ],
            "stateMutability": "view",
            "type": "function"
        },
        {
            "inputs": [
                {
                    "internalType": "uint256",
                    "name": "_quantity",
                    "type": "uint256"
                }
            ],
            "name": "mint",
            "outputs": [],
            "stateMutability": "payable",
            "type": "function"
        },
        {
            "inputs": [],
            "name": "mintPrice",
            "outputs": [
                {
                    "internalType": "uint256",
                    "name": "",
                    "type": "uint256"
                }
            ],
            "stateMutability": "view",
            "type": "function"
        },
        {
            "inputs": [],
            "name": "name",
            "outputs": [
                {
                    "internalType": "string",
                    "name": "",
                    "type": "string"
                }
            ],
            "stateMutability": "view",
            "type": "function"
        },
        {
            "inputs": [],
            "name": "owner",
            "outputs": [
                {
                    "internalType": "address",
                    "name": "",
                    "type": "address"
                }
            ],
            "stateMutability": "view",
            "type": "function"
        },
        {
            "inputs": [
                {
                    "internalType": "uint256",
                    "name": "tokenId",
                    "type": "uint256"
                }
            ],
            "name": "ownerOf",
            "outputs": [
                {
                    "internalType": "address",
                    "name": "",
                    "type": "address"
                }
            ],
            "stateMutability": "view",
            "type": "function"
        },
        {
            "inputs": [],
            "name": "renounceOwnership",
            "outputs": [],
            "stateMutability": "nonpayable",
            "type": "function"
        },
        {
            "inputs": [
                {
                    "internalType": "address",
                    "name": "from",
                    "type": "address"
                },
                {
                    "internalType": "address",
                    "name": "to",
                    "type": "address"
                },
                {
                    "internalType": "uint256",
                    "name": "tokenId",
                    "type": "uint256"
                }
            ],
            "name": "safeTransferFrom",
            "outputs": [],
            "stateMutability": "nonpayable",
            "type": "function"
        },
        {
            "inputs": [
                {
                    "internalType": "address",
                    "name": "from",
                    "type": "address"
                },
                {
                    "internalType": "address",
                    "name": "to",
                    "type": "address"
                },
                {
                    "internalType": "uint256",
                    "name": "tokenId",
                    "type": "uint256"
                },
                {
                    "internalType": "bytes",
                    "name": "_data",
                    "type": "bytes"
                }
            ],
            "name": "safeTransferFrom",
            "outputs": [],
            "stateMutability": "nonpayable",
            "type": "function"
        },
        {
            "inputs": [
                {
                    "internalType": "address",
                    "name": "operator",
                    "type": "address"
                },
                {
                    "internalType": "bool",
                    "name": "approved",
                    "type": "bool"
                }
            ],
            "name": "setApprovalForAll",
            "outputs": [],
            "stateMutability": "nonpayable",
            "type": "function"
        },
        {
            "inputs": [
                {
                    "internalType": "string",
                    "name": "_baseTokenUri",
                    "type": "string"
                }
            ],
            "name": "setBaseTokenUri",
            "outputs": [],
            "stateMutability": "nonpayable",
            "type": "function"
        },
        {
            "inputs": [
                {
                    "internalType": "bool",
                    "name": "_isPublicMintEnabled",
                    "type": "bool"
                }
            ],
            "name": "setIsPublicMintEnabled",
            "outputs": [],
            "stateMutability": "nonpayable",
            "type": "function"
        },
        {
            "inputs": [
                {
                    "internalType": "bytes4",
                    "name": "interfaceId",
                    "type": "bytes4"
                }
            ],
            "name": "supportsInterface",
            "outputs": [
                {
                    "internalType": "bool",
                    "name": "",
                    "type": "bool"
                }
            ],
            "stateMutability": "view",
            "type": "function"
        },
        {
            "inputs": [],
            "name": "symbol",
            "outputs": [
                {
                    "internalType": "string",
                    "name": "",
                    "type": "string"
                }
            ],
            "stateMutability": "view",
            "type": "function"
        },
        {
            "inputs": [
                {
                    "internalType": "uint256",
                    "name": "_tokenId",
                    "type": "uint256"
                }
            ],
            "name": "tokenURI",
            "outputs": [
                {
                    "internalType": "string",
                    "name": "",
                    "type": "string"
                }
            ],
            "stateMutability": "view",
            "type": "function"
        },
        {
            "inputs": [],
            "name": "totalSupply",
            "outputs": [
                {
                    "internalType": "uint256",
                    "name": "",
                    "type": "uint256"
                }
            ],
            "stateMutability": "view",
            "type": "function"
        },
        {
            "inputs": [
                {
                    "internalType": "address",
                    "name": "from",
                    "type": "address"
                },
                {
                    "internalType": "address",
                    "name": "to",
                    "type": "address"
                },
                {
                    "internalType": "uint256",
                    "name": "tokenId",
                    "type": "uint256"
                }
            ],
            "name": "transferFrom",
            "outputs": [],
            "stateMutability": "nonpayable",
            "type": "function"
        },
        {
            "inputs": [
                {
                    "internalType": "address",
                    "name": "newOwner",
                    "type": "address"
                }
            ],
            "name": "transferOwnership",
            "outputs": [],
            "stateMutability": "nonpayable",
            "type": "function"
        },
        {
            "inputs": [
                {
                    "internalType": "address",
                    "name": "",
                    "type": "address"
                }
            ],
            "name": "walletMints",
            "outputs": [
                {
                    "internalType": "uint256",
                    "name": "",
                    "type": "uint256"
                }
            ],
            "stateMutability": "view",
            "type": "function"
        },
        {
            "inputs": [],
            "name": "withdraw",
            "outputs": [],
            "stateMutability": "nonpayable",
            "type": "function"
        },
        {
            "inputs": [],
            "name": "withdrawWallet",
            "outputs": [
                {
                    "internalType": "address payable",
                    "name": "",
                    "type": "address"
                }
            ],
            "stateMutability": "view",
            "type": "function"
        }
    ],
    "bytecode": "0x60806040526040518060400160405280600e81526020017f4176617820576f6c766572696e650000000000000000000000000000000000008152506040518060400160405280600281526020017f415700000000000000000000000000000000000000000000000000000000000081525081600090805190602001906200008892919062000214565b508060019080519060200190620000a192919062000214565b505050620000c4620000b86200014660201b60201c565b6200014e60201b60201c565b670a688906bd8b00006009819055506000600a81905550600a600b819055506003600c8190555073e00c58c5337dc82c631c32e4b2c9739e3c221635600f60006101000a81548173ffffffffffffffffffffffffffffffffffffffff021916908373ffffffffffffffffffffffffffffffffffffffff16021790555062000329565b600033905090565b6000600760009054906101000a900473ffffffffffffffffffffffffffffffffffffffff16905081600760006101000a81548173ffffffffffffffffffffffffffffffffffffffff021916908373ffffffffffffffffffffffffffffffffffffffff1602179055508173ffffffffffffffffffffffffffffffffffffffff168173ffffffffffffffffffffffffffffffffffffffff167f8be0079c531659141344cd1fd0a4f28419497f9722a3daafe3b4186f6b6457e060405160405180910390a35050565b8280546200022290620002c4565b90600052602060002090601f01602090048101928262000246576000855562000292565b82601f106200026157805160ff191683800117855562000292565b8280016001018555821562000292579182015b828111156200029157825182559160200191906001019062000274565b5b509050620002a19190620002a5565b5090565b5b80821115620002c0576000816000905550600101620002a6565b5090565b60006002820490506001821680620002dd57607f821691505b60208210811415620002f457620002f3620002fa565b5b50919050565b7f4e487b7100000000000000000000000000000000000000000000000000000000600052602260045260246000fd5b6137dc80620003396000396000f3fe60806040526004361061019c5760003560e01c806370a08231116100ec578063a22cb4651161008a578063d5abeb0111610064578063d5abeb0114610593578063e985e9c5146105be578063f0293fd3146105fb578063f2fde38b146106385761019c565b8063a22cb46514610504578063b88d4fde1461052d578063c87b56dd146105565761019c565b80638da5cb5b116100c65780638da5cb5b1461046957806395652cfa1461049457806395d89b41146104bd578063a0712d68146104e85761019c565b806370a08231146103ea578063715018a61461042757806385d178f41461043e5761019c565b80632373ac221161015957806342842e0e1161013357806342842e0e1461032e578063453c2310146103575780636352211e146103825780636817c76c146103bf5761019c565b80632373ac22146102c557806323b872dd146102ee5780633ccfd60b146103175761019c565b80630116bc2d146101a157806301ffc9a7146101cc57806306fdde0314610209578063081812fc14610234578063095ea7b31461027157806318160ddd1461029a575b600080fd5b3480156101ad57600080fd5b506101b6610661565b6040516101c39190612a9a565b60405180910390f35b3480156101d857600080fd5b506101f360048036038101906101ee919061247d565b610674565b6040516102009190612a9a565b60405180910390f35b34801561021557600080fd5b5061021e610756565b60405161022b9190612ab5565b60405180910390f35b34801561024057600080fd5b5061025b60048036038101906102569190612524565b6107e8565b6040516102689190612a18565b60405180910390f35b34801561027d57600080fd5b5061029860048036038101906102939190612410565b61086d565b005b3480156102a657600080fd5b506102af610985565b6040516102bc9190612d77565b60405180910390f35b3480156102d157600080fd5b506102ec60048036038101906102e79190612450565b61098b565b005b3480156102fa57600080fd5b50610315600480360381019061031091906122fa565b610a24565b005b34801561032357600080fd5b5061032c610a84565b005b34801561033a57600080fd5b50610355600480360381019061035091906122fa565b610bd1565b005b34801561036357600080fd5b5061036c610bf1565b6040516103799190612d77565b60405180910390f35b34801561038e57600080fd5b506103a960048036038101906103a49190612524565b610bf7565b6040516103b69190612a18565b60405180910390f35b3480156103cb57600080fd5b506103d4610ca9565b6040516103e19190612d77565b60405180910390f35b3480156103f657600080fd5b50610411600480360381019061040c919061228d565b610caf565b60405161041e9190612d77565b60405180910390f35b34801561043357600080fd5b5061043c610d67565b005b34801561044a57600080fd5b50610453610def565b6040516104609190612a33565b60405180910390f35b34801561047557600080fd5b5061047e610e15565b60405161048b9190612a18565b60405180910390f35b3480156104a057600080fd5b506104bb60048036038101906104b691906124d7565b610e3f565b005b3480156104c957600080fd5b506104d2610ed1565b6040516104df9190612ab5565b60405180910390f35b61050260048036038101906104fd9190612524565b610f63565b005b34801561051057600080fd5b5061052b600480360381019061052691906123d0565b61113a565b005b34801561053957600080fd5b50610554600480360381019061054f919061234d565b611150565b005b34801561056257600080fd5b5061057d60048036038101906105789190612524565b6111b2565b60405161058a9190612ab5565b60405180910390f35b34801561059f57600080fd5b506105a861122e565b6040516105b59190612d77565b60405180910390f35b3480156105ca57600080fd5b506105e560048036038101906105e091906122ba565b611234565b6040516105f29190612a9a565b60405180910390f35b34801561060757600080fd5b50610622600480360381019061061d919061228d565b6112c8565b60405161062f9190612d77565b60405180910390f35b34801561064457600080fd5b5061065f600480360381019061065a919061228d565b6112e0565b005b600d60009054906101000a900460ff1681565b60007f80ac58cd000000000000000000000000000000000000000000000000000000007bffffffffffffffffffffffffffffffffffffffffffffffffffffffff1916827bffffffffffffffffffffffffffffffffffffffffffffffffffffffff1916148061073f57507f5b5e139f000000000000000000000000000000000000000000000000000000007bffffffffffffffffffffffffffffffffffffffffffffffffffffffff1916827bffffffffffffffffffffffffffffffffffffffffffffffffffffffff1916145b8061074f575061074e826113d8565b5b9050919050565b60606000805461076590613028565b80601f016020809104026020016040519081016040528092919081815260200182805461079190613028565b80156107de5780601f106107b3576101008083540402835291602001916107de565b820191906000526020600020905b8154815290600101906020018083116107c157829003601f168201915b5050505050905090565b60006107f382611442565b610832576040517f08c379a000000000000000000000000000000000000000000000000000000000815260040161082990612cb7565b60405180910390fd5b6004600083815260200190815260200160002060009054906101000a900473ffffffffffffffffffffffffffffffffffffffff169050919050565b600061087882610bf7565b90508073ffffffffffffffffffffffffffffffffffffffff168373ffffffffffffffffffffffffffffffffffffffff1614156108e9576040517f08c379a00000000000000000000000000000000000000000000000000000000081526004016108e090612cf7565b60405180910390fd5b8073ffffffffffffffffffffffffffffffffffffffff166109086114ae565b73ffffffffffffffffffffffffffffffffffffffff1614806109375750610936816109316114ae565b611234565b5b610976576040517f08c379a000000000000000000000000000000000000000000000000000000000815260040161096d90612c37565b60405180910390fd5b61098083836114b6565b505050565b600a5481565b6109936114ae565b73ffffffffffffffffffffffffffffffffffffffff166109b1610e15565b73ffffffffffffffffffffffffffffffffffffffff1614610a07576040517f08c379a00000000000000000000000000000000000000000000000000000000081526004016109fe90612cd7565b60405180910390fd5b80600d60006101000a81548160ff02191690831515021790555050565b610a35610a2f6114ae565b8261156f565b610a74576040517f08c379a0000000000000000000000000000000000000000000000000000000008152600401610a6b90612d17565b60405180910390fd5b610a7f83838361164d565b505050565b610a8c6114ae565b73ffffffffffffffffffffffffffffffffffffffff16610aaa610e15565b73ffffffffffffffffffffffffffffffffffffffff1614610b00576040517f08c379a0000000000000000000000000000000000000000000000000000000008152600401610af790612cd7565b60405180910390fd5b6000600f60009054906101000a900473ffffffffffffffffffffffffffffffffffffffff1673ffffffffffffffffffffffffffffffffffffffff1647604051610b4890612a03565b60006040518083038185875af1925050503d8060008114610b85576040519150601f19603f3d011682016040523d82523d6000602084013e610b8a565b606091505b5050905080610bce576040517f08c379a0000000000000000000000000000000000000000000000000000000008152600401610bc590612d57565b60405180910390fd5b50565b610bec83838360405180602001604052806000815250611150565b505050565b600c5481565b6000806002600084815260200190815260200160002060009054906101000a900473ffffffffffffffffffffffffffffffffffffffff169050600073ffffffffffffffffffffffffffffffffffffffff168173ffffffffffffffffffffffffffffffffffffffff161415610ca0576040517f08c379a0000000000000000000000000000000000000000000000000000000008152600401610c9790612c77565b60405180910390fd5b80915050919050565b60095481565b60008073ffffffffffffffffffffffffffffffffffffffff168273ffffffffffffffffffffffffffffffffffffffff161415610d20576040517f08c379a0000000000000000000000000000000000000000000000000000000008152600401610d1790612c57565b60405180910390fd5b600360008373ffffffffffffffffffffffffffffffffffffffff1673ffffffffffffffffffffffffffffffffffffffff168152602001908152602001600020549050919050565b610d6f6114ae565b73ffffffffffffffffffffffffffffffffffffffff16610d8d610e15565b73ffffffffffffffffffffffffffffffffffffffff1614610de3576040517f08c379a0000000000000000000000000000000000000000000000000000000008152600401610dda90612cd7565b60405180910390fd5b610ded60006118b4565b565b600f60009054906101000a900473ffffffffffffffffffffffffffffffffffffffff1681565b6000600760009054906101000a900473ffffffffffffffffffffffffffffffffffffffff16905090565b610e476114ae565b73ffffffffffffffffffffffffffffffffffffffff16610e65610e15565b73ffffffffffffffffffffffffffffffffffffffff1614610ebb576040517f08c379a0000000000000000000000000000000000000000000000000000000008152600401610eb290612cd7565b60405180910390fd5b8181600e9190610ecc9291906120bb565b505050565b606060018054610ee090613028565b80601f0160208091040260200160405190810160405280929190818152602001828054610f0c90613028565b8015610f595780601f10610f2e57610100808354040283529160200191610f59565b820191906000526020600020905b815481529060010190602001808311610f3c57829003601f168201915b5050505050905090565b600d60009054906101000a900460ff16610fb2576040517f08c379a0000000000000000000000000000000000000000000000000000000008152600401610fa990612b17565b60405180910390fd5b60095481610fc09190612ed2565b3414611001576040517f08c379a0000000000000000000000000000000000000000000000000000000008152600401610ff890612ad7565b60405180910390fd5b600b5481600a546110129190612e4b565b1115611053576040517f08c379a000000000000000000000000000000000000000000000000000000000815260040161104a90612c17565b60405180910390fd5b600c5481601060003373ffffffffffffffffffffffffffffffffffffffff1673ffffffffffffffffffffffffffffffffffffffff168152602001908152602001600020546110a19190612e4b565b11156110e2576040517f08c379a00000000000000000000000000000000000000000000000000000000081526004016110d990612b77565b60405180910390fd5b60005b818110156111365760006001600a546110fe9190612e4b565b9050600a60008154809291906111139061308b565b9190505550611122338261197a565b50808061112e9061308b565b9150506110e5565b5050565b61114c6111456114ae565b8383611998565b5050565b61116161115b6114ae565b8361156f565b6111a0576040517f08c379a000000000000000000000000000000000000000000000000000000000815260040161119790612d17565b60405180910390fd5b6111ac84848484611b05565b50505050565b60606111bd82611442565b6111fc576040517f08c379a00000000000000000000000000000000000000000000000000000000081526004016111f390612d37565b60405180910390fd5b600e61120783611b61565b6040516020016112189291906129d4565b6040516020818303038152906040529050919050565b600b5481565b6000600560008473ffffffffffffffffffffffffffffffffffffffff1673ffffffffffffffffffffffffffffffffffffffff16815260200190815260200160002060008373ffffffffffffffffffffffffffffffffffffffff1673ffffffffffffffffffffffffffffffffffffffff16815260200190815260200160002060009054906101000a900460ff16905092915050565b60106020528060005260406000206000915090505481565b6112e86114ae565b73ffffffffffffffffffffffffffffffffffffffff16611306610e15565b73ffffffffffffffffffffffffffffffffffffffff161461135c576040517f08c379a000000000000000000000000000000000000000000000000000000000815260040161135390612cd7565b60405180910390fd5b600073ffffffffffffffffffffffffffffffffffffffff168173ffffffffffffffffffffffffffffffffffffffff1614156113cc576040517f08c379a00000000000000000000000000000000000000000000000000000000081526004016113c390612b37565b60405180910390fd5b6113d5816118b4565b50565b60007f01ffc9a7000000000000000000000000000000000000000000000000000000007bffffffffffffffffffffffffffffffffffffffffffffffffffffffff1916827bffffffffffffffffffffffffffffffffffffffffffffffffffffffff1916149050919050565b60008073ffffffffffffffffffffffffffffffffffffffff166002600084815260200190815260200160002060009054906101000a900473ffffffffffffffffffffffffffffffffffffffff1673ffffffffffffffffffffffffffffffffffffffff1614159050919050565b600033905090565b816004600083815260200190815260200160002060006101000a81548173ffffffffffffffffffffffffffffffffffffffff021916908373ffffffffffffffffffffffffffffffffffffffff160217905550808273ffffffffffffffffffffffffffffffffffffffff1661152983610bf7565b73ffffffffffffffffffffffffffffffffffffffff167f8c5be1e5ebec7d5bd14f71427d1e84f3dd0314c0f7b2291e5b200ac8c7c3b92560405160405180910390a45050565b600061157a82611442565b6115b9576040517f08c379a00000000000000000000000000000000000000000000000000000000081526004016115b090612bf7565b60405180910390fd5b60006115c483610bf7565b90508073ffffffffffffffffffffffffffffffffffffffff168473ffffffffffffffffffffffffffffffffffffffff16148061163357508373ffffffffffffffffffffffffffffffffffffffff1661161b846107e8565b73ffffffffffffffffffffffffffffffffffffffff16145b8061164457506116438185611234565b5b91505092915050565b8273ffffffffffffffffffffffffffffffffffffffff1661166d82610bf7565b73ffffffffffffffffffffffffffffffffffffffff16146116c3576040517f08c379a00000000000000000000000000000000000000000000000000000000081526004016116ba90612b57565b60405180910390fd5b600073ffffffffffffffffffffffffffffffffffffffff168273ffffffffffffffffffffffffffffffffffffffff161415611733576040517f08c379a000000000000000000000000000000000000000000000000000000000815260040161172a90612bb7565b60405180910390fd5b61173e838383611cc2565b6117496000826114b6565b6001600360008573ffffffffffffffffffffffffffffffffffffffff1673ffffffffffffffffffffffffffffffffffffffff16815260200190815260200160002060008282546117999190612f2c565b925050819055506001600360008473ffffffffffffffffffffffffffffffffffffffff1673ffffffffffffffffffffffffffffffffffffffff16815260200190815260200160002060008282546117f09190612e4b565b92505081905550816002600083815260200190815260200160002060006101000a81548173ffffffffffffffffffffffffffffffffffffffff021916908373ffffffffffffffffffffffffffffffffffffffff160217905550808273ffffffffffffffffffffffffffffffffffffffff168473ffffffffffffffffffffffffffffffffffffffff167fddf252ad1be2c89b69c2b068fc378daa952ba7f163c4a11628f55a4df523b3ef60405160405180910390a46118af838383611cc7565b505050565b6000600760009054906101000a900473ffffffffffffffffffffffffffffffffffffffff16905081600760006101000a81548173ffffffffffffffffffffffffffffffffffffffff021916908373ffffffffffffffffffffffffffffffffffffffff1602179055508173ffffffffffffffffffffffffffffffffffffffff168173ffffffffffffffffffffffffffffffffffffffff167f8be0079c531659141344cd1fd0a4f28419497f9722a3daafe3b4186f6b6457e060405160405180910390a35050565b611994828260405180602001604052806000815250611ccc565b5050565b8173ffffffffffffffffffffffffffffffffffffffff168373ffffffffffffffffffffffffffffffffffffffff161415611a07576040517f08c379a00000000000000000000000000000000000000000000000000000000081526004016119fe90612bd7565b60405180910390fd5b80600560008573ffffffffffffffffffffffffffffffffffffffff1673ffffffffffffffffffffffffffffffffffffffff16815260200190815260200160002060008473ffffffffffffffffffffffffffffffffffffffff1673ffffffffffffffffffffffffffffffffffffffff16815260200190815260200160002060006101000a81548160ff0219169083151502179055508173ffffffffffffffffffffffffffffffffffffffff168373ffffffffffffffffffffffffffffffffffffffff167f17307eab39ab6107e8899845ad3d59bd9653f200f220920489ca2b5937696c3183604051611af89190612a9a565b60405180910390a3505050565b611b1084848461164d565b611b1c84848484611d27565b611b5b576040517f08c379a0000000000000000000000000000000000000000000000000000000008152600401611b5290612af7565b60405180910390fd5b50505050565b60606000821415611ba9576040518060400160405280600181526020017f30000000000000000000000000000000000000000000000000000000000000008152509050611cbd565b600082905060005b60008214611bdb578080611bc49061308b565b915050600a82611bd49190612ea1565b9150611bb1565b60008167ffffffffffffffff811115611bf757611bf66131c1565b5b6040519080825280601f01601f191660200182016040528015611c295781602001600182028036833780820191505090505b5090505b60008514611cb657600182611c429190612f2c565b9150600a85611c5191906130d4565b6030611c5d9190612e4b565b60f81b818381518110611c7357611c72613192565b5b60200101907effffffffffffffffffffffffffffffffffffffffffffffffffffffffffffff1916908160001a905350600a85611caf9190612ea1565b9450611c2d565b8093505050505b919050565b505050565b505050565b611cd68383611ebe565b611ce36000848484611d27565b611d22576040517f08c379a0000000000000000000000000000000000000000000000000000000008152600401611d1990612af7565b60405180910390fd5b505050565b6000611d488473ffffffffffffffffffffffffffffffffffffffff16612098565b15611eb1578373ffffffffffffffffffffffffffffffffffffffff1663150b7a02611d716114ae565b8786866040518563ffffffff1660e01b8152600401611d939493929190612a4e565b602060405180830381600087803b158015611dad57600080fd5b505af1925050508015611dde57506040513d601f19601f82011682018060405250810190611ddb91906124aa565b60015b611e61573d8060008114611e0e576040519150601f19603f3d011682016040523d82523d6000602084013e611e13565b606091505b50600081511415611e59576040517f08c379a0000000000000000000000000000000000000000000000000000000008152600401611e5090612af7565b60405180910390fd5b805181602001fd5b63150b7a0260e01b7bffffffffffffffffffffffffffffffffffffffffffffffffffffffff1916817bffffffffffffffffffffffffffffffffffffffffffffffffffffffff191614915050611eb6565b600190505b949350505050565b600073ffffffffffffffffffffffffffffffffffffffff168273ffffffffffffffffffffffffffffffffffffffff161415611f2e576040517f08c379a0000000000000000000000000000000000000000000000000000000008152600401611f2590612c97565b60405180910390fd5b611f3781611442565b15611f77576040517f08c379a0000000000000000000000000000000000000000000000000000000008152600401611f6e90612b97565b60405180910390fd5b611f8360008383611cc2565b6001600360008473ffffffffffffffffffffffffffffffffffffffff1673ffffffffffffffffffffffffffffffffffffffff1681526020019081526020016000206000828254611fd39190612e4b565b92505081905550816002600083815260200190815260200160002060006101000a81548173ffffffffffffffffffffffffffffffffffffffff021916908373ffffffffffffffffffffffffffffffffffffffff160217905550808273ffffffffffffffffffffffffffffffffffffffff16600073ffffffffffffffffffffffffffffffffffffffff167fddf252ad1be2c89b69c2b068fc378daa952ba7f163c4a11628f55a4df523b3ef60405160405180910390a461209460008383611cc7565b5050565b6000808273ffffffffffffffffffffffffffffffffffffffff163b119050919050565b8280546120c790613028565b90600052602060002090601f0160209004810192826120e95760008555612130565b82601f1061210257803560ff1916838001178555612130565b82800160010185558215612130579182015b8281111561212f578235825591602001919060010190612114565b5b50905061213d9190612141565b5090565b5b8082111561215a576000816000905550600101612142565b5090565b600061217161216c84612db7565b612d92565b90508281526020810184848401111561218d5761218c6131ff565b5b612198848285612fe6565b509392505050565b6000813590506121af8161374a565b92915050565b6000813590506121c481613761565b92915050565b6000813590506121d981613778565b92915050565b6000815190506121ee81613778565b92915050565b600082601f830112612209576122086131f5565b5b813561221984826020860161215e565b91505092915050565b60008083601f840112612238576122376131f5565b5b8235905067ffffffffffffffff811115612255576122546131f0565b5b602083019150836001820283011115612271576122706131fa565b5b9250929050565b6000813590506122878161378f565b92915050565b6000602082840312156122a3576122a2613209565b5b60006122b1848285016121a0565b91505092915050565b600080604083850312156122d1576122d0613209565b5b60006122df858286016121a0565b92505060206122f0858286016121a0565b9150509250929050565b60008060006060848603121561231357612312613209565b5b6000612321868287016121a0565b9350506020612332868287016121a0565b925050604061234386828701612278565b9150509250925092565b6000806000806080858703121561236757612366613209565b5b6000612375878288016121a0565b9450506020612386878288016121a0565b935050604061239787828801612278565b925050606085013567ffffffffffffffff8111156123b8576123b7613204565b5b6123c4878288016121f4565b91505092959194509250565b600080604083850312156123e7576123e6613209565b5b60006123f5858286016121a0565b9250506020612406858286016121b5565b9150509250929050565b6000806040838503121561242757612426613209565b5b6000612435858286016121a0565b925050602061244685828601612278565b9150509250929050565b60006020828403121561246657612465613209565b5b6000612474848285016121b5565b91505092915050565b60006020828403121561249357612492613209565b5b60006124a1848285016121ca565b91505092915050565b6000602082840312156124c0576124bf613209565b5b60006124ce848285016121df565b91505092915050565b600080602083850312156124ee576124ed613209565b5b600083013567ffffffffffffffff81111561250c5761250b613204565b5b61251885828601612222565b92509250509250929050565b60006020828403121561253a57612539613209565b5b600061254884828501612278565b91505092915050565b61255a81612f72565b82525050565b61256981612f60565b82525050565b61257881612f84565b82525050565b600061258982612dfd565b6125938185612e13565b93506125a3818560208601612ff5565b6125ac8161320e565b840191505092915050565b60006125c282612e08565b6125cc8185612e2f565b93506125dc818560208601612ff5565b6125e58161320e565b840191505092915050565b60006125fb82612e08565b6126058185612e40565b9350612615818560208601612ff5565b80840191505092915050565b6000815461262e81613028565b6126388186612e40565b94506001821660008114612653576001811461266457612697565b60ff19831686528186019350612697565b61266d85612de8565b60005b8381101561268f57815481890152600182019150602081019050612670565b838801955050505b50505092915050565b60006126ad601083612e2f565b91506126b88261321f565b602082019050919050565b60006126d0603283612e2f565b91506126db82613248565b604082019050919050565b60006126f3601383612e2f565b91506126fe82613297565b602082019050919050565b6000612716602683612e2f565b9150612721826132c0565b604082019050919050565b6000612739602583612e2f565b91506127448261330f565b604082019050919050565b600061275c601a83612e2f565b91506127678261335e565b602082019050919050565b600061277f601c83612e2f565b915061278a82613387565b602082019050919050565b60006127a2602483612e2f565b91506127ad826133b0565b604082019050919050565b60006127c5601983612e2f565b91506127d0826133ff565b602082019050919050565b60006127e8602c83612e2f565b91506127f382613428565b604082019050919050565b600061280b600883612e2f565b915061281682613477565b602082019050919050565b600061282e603883612e2f565b9150612839826134a0565b604082019050919050565b6000612851602a83612e2f565b915061285c826134ef565b604082019050919050565b6000612874602983612e2f565b915061287f8261353e565b604082019050919050565b6000612897602083612e2f565b91506128a28261358d565b602082019050919050565b60006128ba602c83612e2f565b91506128c5826135b6565b604082019050919050565b60006128dd600583612e40565b91506128e882613605565b600582019050919050565b6000612900602083612e2f565b915061290b8261362e565b602082019050919050565b6000612923602183612e2f565b915061292e82613657565b604082019050919050565b6000612946600083612e24565b9150612951826136a6565b600082019050919050565b6000612969603183612e2f565b9150612974826136a9565b604082019050919050565b600061298c601583612e2f565b9150612997826136f8565b602082019050919050565b60006129af600f83612e2f565b91506129ba82613721565b602082019050919050565b6129ce81612fdc565b82525050565b60006129e08285612621565b91506129ec82846125f0565b91506129f7826128d0565b91508190509392505050565b6000612a0e82612939565b9150819050919050565b6000602082019050612a2d6000830184612560565b92915050565b6000602082019050612a486000830184612551565b92915050565b6000608082019050612a636000830187612560565b612a706020830186612560565b612a7d60408301856129c5565b8181036060830152612a8f818461257e565b905095945050505050565b6000602082019050612aaf600083018461256f565b92915050565b60006020820190508181036000830152612acf81846125b7565b905092915050565b60006020820190508181036000830152612af0816126a0565b9050919050565b60006020820190508181036000830152612b10816126c3565b9050919050565b60006020820190508181036000830152612b30816126e6565b9050919050565b60006020820190508181036000830152612b5081612709565b9050919050565b60006020820190508181036000830152612b708161272c565b9050919050565b60006020820190508181036000830152612b908161274f565b9050919050565b60006020820190508181036000830152612bb081612772565b9050919050565b60006020820190508181036000830152612bd081612795565b9050919050565b60006020820190508181036000830152612bf0816127b8565b9050919050565b60006020820190508181036000830152612c10816127db565b9050919050565b60006020820190508181036000830152612c30816127fe565b9050919050565b60006020820190508181036000830152612c5081612821565b9050919050565b60006020820190508181036000830152612c7081612844565b9050919050565b60006020820190508181036000830152612c9081612867565b9050919050565b60006020820190508181036000830152612cb08161288a565b9050919050565b60006020820190508181036000830152612cd0816128ad565b9050919050565b60006020820190508181036000830152612cf0816128f3565b9050919050565b60006020820190508181036000830152612d1081612916565b9050919050565b60006020820190508181036000830152612d308161295c565b9050919050565b60006020820190508181036000830152612d508161297f565b9050919050565b60006020820190508181036000830152612d70816129a2565b9050919050565b6000602082019050612d8c60008301846129c5565b92915050565b6000612d9c612dad565b9050612da8828261305a565b919050565b6000604051905090565b600067ffffffffffffffff821115612dd257612dd16131c1565b5b612ddb8261320e565b9050602081019050919050565b60008190508160005260206000209050919050565b600081519050919050565b600081519050919050565b600082825260208201905092915050565b600081905092915050565b600082825260208201905092915050565b600081905092915050565b6000612e5682612fdc565b9150612e6183612fdc565b9250827fffffffffffffffffffffffffffffffffffffffffffffffffffffffffffffffff03821115612e9657612e95613105565b5b828201905092915050565b6000612eac82612fdc565b9150612eb783612fdc565b925082612ec757612ec6613134565b5b828204905092915050565b6000612edd82612fdc565b9150612ee883612fdc565b9250817fffffffffffffffffffffffffffffffffffffffffffffffffffffffffffffffff0483118215151615612f2157612f20613105565b5b828202905092915050565b6000612f3782612fdc565b9150612f4283612fdc565b925082821015612f5557612f54613105565b5b828203905092915050565b6000612f6b82612fbc565b9050919050565b6000612f7d82612fbc565b9050919050565b60008115159050919050565b60007fffffffff0000000000000000000000000000000000000000000000000000000082169050919050565b600073ffffffffffffffffffffffffffffffffffffffff82169050919050565b6000819050919050565b82818337600083830152505050565b60005b83811015613013578082015181840152602081019050612ff8565b83811115613022576000848401525b50505050565b6000600282049050600182168061304057607f821691505b6020821081141561305457613053613163565b5b50919050565b6130638261320e565b810181811067ffffffffffffffff82111715613082576130816131c1565b5b80604052505050565b600061309682612fdc565b91507fffffffffffffffffffffffffffffffffffffffffffffffffffffffffffffffff8214156130c9576130c8613105565b5b600182019050919050565b60006130df82612fdc565b91506130ea83612fdc565b9250826130fa576130f9613134565b5b828206905092915050565b7f4e487b7100000000000000000000000000000000000000000000000000000000600052601160045260246000fd5b7f4e487b7100000000000000000000000000000000000000000000000000000000600052601260045260246000fd5b7f4e487b7100000000000000000000000000000000000000000000000000000000600052602260045260246000fd5b7f4e487b7100000000000000000000000000000000000000000000000000000000600052603260045260246000fd5b7f4e487b7100000000000000000000000000000000000000000000000000000000600052604160045260246000fd5b600080fd5b600080fd5b600080fd5b600080fd5b600080fd5b600080fd5b6000601f19601f8301169050919050565b7f77726f6e67206d696e742076616c756500000000000000000000000000000000600082015250565b7f4552433732313a207472616e7366657220746f206e6f6e20455243373231526560008201527f63656976657220696d706c656d656e7465720000000000000000000000000000602082015250565b7f6d696e74696e67206e6f7420656e61626c656400000000000000000000000000600082015250565b7f4f776e61626c653a206e6577206f776e657220697320746865207a65726f206160008201527f6464726573730000000000000000000000000000000000000000000000000000602082015250565b7f4552433732313a207472616e736665722066726f6d20696e636f72726563742060008201527f6f776e6572000000000000000000000000000000000000000000000000000000602082015250565b7f65786365656465642077616c6c6574206d696e74206c696d6974000000000000600082015250565b7f4552433732313a20746f6b656e20616c7265616479206d696e74656400000000600082015250565b7f4552433732313a207472616e7366657220746f20746865207a65726f2061646460008201527f7265737300000000000000000000000000000000000000000000000000000000602082015250565b7f4552433732313a20617070726f766520746f2063616c6c657200000000000000600082015250565b7f4552433732313a206f70657261746f7220717565727920666f72206e6f6e657860008201527f697374656e7420746f6b656e0000000000000000000000000000000000000000602082015250565b7f736f6c64206f7574000000000000000000000000000000000000000000000000600082015250565b7f4552433732313a20617070726f76652063616c6c6572206973206e6f74206f7760008201527f6e6572206e6f7220617070726f76656420666f7220616c6c0000000000000000602082015250565b7f4552433732313a2062616c616e636520717565727920666f7220746865207a6560008201527f726f206164647265737300000000000000000000000000000000000000000000602082015250565b7f4552433732313a206f776e657220717565727920666f72206e6f6e657869737460008201527f656e7420746f6b656e0000000000000000000000000000000000000000000000602082015250565b7f4552433732313a206d696e7420746f20746865207a65726f2061646472657373600082015250565b7f4552433732313a20617070726f76656420717565727920666f72206e6f6e657860008201527f697374656e7420746f6b656e0000000000000000000000000000000000000000602082015250565b7f2e6a736f6e000000000000000000000000000000000000000000000000000000600082015250565b7f4f776e61626c653a2063616c6c6572206973206e6f7420746865206f776e6572600082015250565b7f4552433732313a20617070726f76616c20746f2063757272656e74206f776e6560008201527f7200000000000000000000000000000000000000000000000000000000000000602082015250565b50565b7f4552433732313a207472616e736665722063616c6c6572206973206e6f74206f60008201527f776e6572206e6f7220617070726f766564000000000000000000000000000000602082015250565b7f546f6b656e20646f6573206e6f74206578697374730000000000000000000000600082015250565b7f7769746864726177206661696c65640000000000000000000000000000000000600082015250565b61375381612f60565b811461375e57600080fd5b50565b61376a81612f84565b811461377557600080fd5b50565b61378181612f90565b811461378c57600080fd5b50565b61379881612fdc565b81146137a357600080fd5b5056fea2646970667358221220a492a57e154ca408eced3086e76410c3ac575f970989fb704347061bc3724cfd64736f6c63430008070033",
    "linkReferences": {},
    "deployedLinkReferences": {}
}