{
    "_format": "hh-sol-artifact-1",
    "contractName": "AvalancheNFT",
    "sourceName": "contracts/AvalancheNFT.sol",
    "abi": [
        {
            "inputs": [
                {
                    "internalType": "string",
                    "name": "_nftImageURI",
                    "type": "string"
                }
            ],
            "stateMutability": "payable",
            "type": "constructor"
        },
        {
            "anonymous": false,
            "inputs": [
                {
                    "indexed": true,
                    "internalType": "address",
                    "name": "owner",
                    "type": "address"
                },
                {
                    "indexed": true,
                    "internalType": "address",
                    "name": "approved",
                    "type": "address"
                },
                {
                    "indexed": true,
                    "internalType": "uint256",
                    "name": "tokenId",
                    "type": "uint256"
                }
            ],
            "name": "Approval",
            "type": "event"
        },
        {
            "anonymous": false,
            "inputs": [
                {
                    "indexed": true,
                    "internalType": "address",
                    "name": "owner",
                    "type": "address"
                },
                {
                    "indexed": true,
                    "internalType": "address",
                    "name": "operator",
                    "type": "address"
                },
                {
                    "indexed": false,
                    "internalType": "bool",
                    "name": "approved",
                    "type": "bool"
                }
            ],
            "name": "ApprovalForAll",
            "type": "event"
        },
        {
            "anonymous": false,
            "inputs": [
                {
                    "indexed": false,
                    "internalType": "address",
                    "name": "sender",
                    "type": "address"
                },
                {
                    "indexed": false,
                    "internalType": "uint256",
                    "name": "tokenId",
                    "type": "uint256"
                }
            ],
            "name": "NewEpicNFTMinted",
            "type": "event"
        },
        {
            "anonymous": false,
            "inputs": [
                {
                    "indexed": true,
                    "internalType": "address",
                    "name": "previousOwner",
                    "type": "address"
                },
                {
                    "indexed": true,
                    "internalType": "address",
                    "name": "newOwner",
                    "type": "address"
                }
            ],
            "name": "OwnershipTransferred",
            "type": "event"
        },
        {
            "anonymous": false,
            "inputs": [
                {
                    "indexed": true,
                    "internalType": "address",
                    "name": "from",
                    "type": "address"
                },
                {
                    "indexed": true,
                    "internalType": "address",
                    "name": "to",
                    "type": "address"
                },
                {
                    "indexed": true,
                    "internalType": "uint256",
                    "name": "tokenId",
                    "type": "uint256"
                }
            ],
            "name": "Transfer",
            "type": "event"
        },
        {
            "inputs": [
                {
                    "internalType": "address",
                    "name": "to",
                    "type": "address"
                },
                {
                    "internalType": "uint256",
                    "name": "tokenId",
                    "type": "uint256"
                }
            ],
            "name": "approve",
            "outputs": [],
            "stateMutability": "nonpayable",
            "type": "function"
        },
        {
            "inputs": [
                {
                    "internalType": "address",
                    "name": "owner",
                    "type": "address"
                }
            ],
            "name": "balanceOf",
            "outputs": [
                {
                    "internalType": "uint256",
                    "name": "",
                    "type": "uint256"
                }
            ],
            "stateMutability": "view",
            "type": "function"
        },
        {
            "inputs": [
                {
                    "internalType": "uint256",
                    "name": "tokenId",
                    "type": "uint256"
                }
            ],
            "name": "getApproved",
            "outputs": [
                {
                    "internalType": "address",
                    "name": "",
                    "type": "address"
                }
            ],
            "stateMutability": "view",
            "type": "function"
        },
        {
            "inputs": [
                {
                    "internalType": "address",
                    "name": "owner",
                    "type": "address"
                },
                {
                    "internalType": "address",
                    "name": "operator",
                    "type": "address"
                }
            ],
            "name": "isApprovedForAll",
            "outputs": [
                {
                    "internalType": "bool",
                    "name": "",
                    "type": "bool"
                }
            ],
            "stateMutability": "view",
            "type": "function"
        },
        {
            "inputs": [],
            "name": "isPublicMintEnabled",
            "outputs": [
                {
                    "internalType": "bool",
                    "name": "",
                    "type": "bool"
                }
            ],
            "stateMutability": "view",
            "type": "function"
        },
        {
            "inputs": [],
            "name": "maxPerWallet",
            "outputs": [
                {
                    "internalType": "uint256",
                    "name": "",
                    "type": "uint256"
                }
            ],
            "stateMutability": "view",
            "type": "function"
        },
        {
            "inputs": [],
            "name": "maxSupply",
            "outputs": [
                {
                    "internalType": "uint256",
                    "name": "",
                    "type": "uint256"
                }
            ],
            "stateMutability": "view",
            "type": "function"
        },
        {
            "inputs": [
                {
                    "internalType": "uint256",
                    "name": "_quantity",
                    "type": "uint256"
                }
            ],
            "name": "mint",
            "outputs": [],
            "stateMutability": "payable",
            "type": "function"
        },
        {
            "inputs": [],
            "name": "mintPrice",
            "outputs": [
                {
                    "internalType": "uint256",
                    "name": "",
                    "type": "uint256"
                }
            ],
            "stateMutability": "view",
            "type": "function"
        },
        {
            "inputs": [],
            "name": "name",
            "outputs": [
                {
                    "internalType": "string",
                    "name": "",
                    "type": "string"
                }
            ],
            "stateMutability": "view",
            "type": "function"
        },
        {
            "inputs": [],
            "name": "owner",
            "outputs": [
                {
                    "internalType": "address",
                    "name": "",
                    "type": "address"
                }
            ],
            "stateMutability": "view",
            "type": "function"
        },
        {
            "inputs": [
                {
                    "internalType": "uint256",
                    "name": "tokenId",
                    "type": "uint256"
                }
            ],
            "name": "ownerOf",
            "outputs": [
                {
                    "internalType": "address",
                    "name": "",
                    "type": "address"
                }
            ],
            "stateMutability": "view",
            "type": "function"
        },
        {
            "inputs": [],
            "name": "renounceOwnership",
            "outputs": [],
            "stateMutability": "nonpayable",
            "type": "function"
        },
        {
            "inputs": [
                {
                    "internalType": "address",
                    "name": "from",
                    "type": "address"
                },
                {
                    "internalType": "address",
                    "name": "to",
                    "type": "address"
                },
                {
                    "internalType": "uint256",
                    "name": "tokenId",
                    "type": "uint256"
                }
            ],
            "name": "safeTransferFrom",
            "outputs": [],
            "stateMutability": "nonpayable",
            "type": "function"
        },
        {
            "inputs": [
                {
                    "internalType": "address",
                    "name": "from",
                    "type": "address"
                },
                {
                    "internalType": "address",
                    "name": "to",
                    "type": "address"
                },
                {
                    "internalType": "uint256",
                    "name": "tokenId",
                    "type": "uint256"
                },
                {
                    "internalType": "bytes",
                    "name": "_data",
                    "type": "bytes"
                }
            ],
            "name": "safeTransferFrom",
            "outputs": [],
            "stateMutability": "nonpayable",
            "type": "function"
        },
        {
            "inputs": [
                {
                    "internalType": "address",
                    "name": "operator",
                    "type": "address"
                },
                {
                    "internalType": "bool",
                    "name": "approved",
                    "type": "bool"
                }
            ],
            "name": "setApprovalForAll",
            "outputs": [],
            "stateMutability": "nonpayable",
            "type": "function"
        },
        {
            "inputs": [
                {
                    "internalType": "bool",
                    "name": "_isPublicMintEnabled",
                    "type": "bool"
                }
            ],
            "name": "setIsPublicMintEnabled",
            "outputs": [],
            "stateMutability": "nonpayable",
            "type": "function"
        },
        {
            "inputs": [
                {
                    "internalType": "bytes4",
                    "name": "interfaceId",
                    "type": "bytes4"
                }
            ],
            "name": "supportsInterface",
            "outputs": [
                {
                    "internalType": "bool",
                    "name": "",
                    "type": "bool"
                }
            ],
            "stateMutability": "view",
            "type": "function"
        },
        {
            "inputs": [],
            "name": "symbol",
            "outputs": [
                {
                    "internalType": "string",
                    "name": "",
                    "type": "string"
                }
            ],
            "stateMutability": "view",
            "type": "function"
        },
        {
            "inputs": [
                {
                    "internalType": "uint256",
                    "name": "tokenId",
                    "type": "uint256"
                }
            ],
            "name": "tokenURI",
            "outputs": [
                {
                    "internalType": "string",
                    "name": "",
                    "type": "string"
                }
            ],
            "stateMutability": "view",
            "type": "function"
        },
        {
            "inputs": [],
            "name": "totalSupply",
            "outputs": [
                {
                    "internalType": "uint256",
                    "name": "",
                    "type": "uint256"
                }
            ],
            "stateMutability": "view",
            "type": "function"
        },
        {
            "inputs": [
                {
                    "internalType": "address",
                    "name": "from",
                    "type": "address"
                },
                {
                    "internalType": "address",
                    "name": "to",
                    "type": "address"
                },
                {
                    "internalType": "uint256",
                    "name": "tokenId",
                    "type": "uint256"
                }
            ],
            "name": "transferFrom",
            "outputs": [],
            "stateMutability": "nonpayable",
            "type": "function"
        },
        {
            "inputs": [
                {
                    "internalType": "address",
                    "name": "newOwner",
                    "type": "address"
                }
            ],
            "name": "transferOwnership",
            "outputs": [],
            "stateMutability": "nonpayable",
            "type": "function"
        },
        {
            "inputs": [
                {
                    "internalType": "address",
                    "name": "",
                    "type": "address"
                }
            ],
            "name": "walletMints",
            "outputs": [
                {
                    "internalType": "uint256",
                    "name": "",
                    "type": "uint256"
                }
            ],
            "stateMutability": "view",
            "type": "function"
        },
        {
            "inputs": [],
            "name": "withdraw",
            "outputs": [],
            "stateMutability": "nonpayable",
            "type": "function"
        },
        {
            "inputs": [],
            "name": "withdrawWallet",
            "outputs": [
                {
                    "internalType": "address payable",
                    "name": "",
                    "type": "address"
                }
            ],
            "stateMutability": "view",
            "type": "function"
        }
    ],
    "bytecode": "0x6080604052604051620042ef380380620042ef8339818101604052810190620000299190620003ae565b6040518060400160405280600e81526020017f4176617820576f6c766572696e650000000000000000000000000000000000008152506040518060400160405280600281526020017f41570000000000000000000000000000000000000000000000000000000000008152508160009080519060200190620000ad92919062000280565b508060019080519060200190620000c692919062000280565b505050620000e9620000dd6200019c60201b60201c565b620001a460201b60201c565b80600990805190602001906200010192919062000280565b50670a688906bd8b0000600a819055506000600b81905550600a600c819055506002600d8190555073e00c58c5337dc82c631c32e4b2c9739e3c221635600e60016101000a81548173ffffffffffffffffffffffffffffffffffffffff021916908373ffffffffffffffffffffffffffffffffffffffff1602179055506200019560086200026a60201b6200143c1760201c565b5062000583565b600033905090565b6000600760009054906101000a900473ffffffffffffffffffffffffffffffffffffffff16905081600760006101000a81548173ffffffffffffffffffffffffffffffffffffffff021916908373ffffffffffffffffffffffffffffffffffffffff1602179055508173ffffffffffffffffffffffffffffffffffffffff168173ffffffffffffffffffffffffffffffffffffffff167f8be0079c531659141344cd1fd0a4f28419497f9722a3daafe3b4186f6b6457e060405160405180910390a35050565b6001816000016000828254019250508190555050565b8280546200028e9062000494565b90600052602060002090601f016020900481019282620002b25760008555620002fe565b82601f10620002cd57805160ff1916838001178555620002fe565b82800160010185558215620002fe579182015b82811115620002fd578251825591602001919060010190620002e0565b5b5090506200030d919062000311565b5090565b5b808211156200032c57600081600090555060010162000312565b5090565b600062000347620003418462000428565b620003ff565b90508281526020810184848401111562000366576200036562000563565b5b620003738482856200045e565b509392505050565b600082601f8301126200039357620003926200055e565b5b8151620003a584826020860162000330565b91505092915050565b600060208284031215620003c757620003c66200056d565b5b600082015167ffffffffffffffff811115620003e857620003e762000568565b5b620003f6848285016200037b565b91505092915050565b60006200040b6200041e565b9050620004198282620004ca565b919050565b6000604051905090565b600067ffffffffffffffff8211156200044657620004456200052f565b5b620004518262000572565b9050602081019050919050565b60005b838110156200047e57808201518184015260208101905062000461565b838111156200048e576000848401525b50505050565b60006002820490506001821680620004ad57607f821691505b60208210811415620004c457620004c362000500565b5b50919050565b620004d58262000572565b810181811067ffffffffffffffff82111715620004f757620004f66200052f565b5b80604052505050565b7f4e487b7100000000000000000000000000000000000000000000000000000000600052602260045260246000fd5b7f4e487b7100000000000000000000000000000000000000000000000000000000600052604160045260246000fd5b600080fd5b600080fd5b600080fd5b600080fd5b6000601f19601f8301169050919050565b613d5c80620005936000396000f3fe6080604052600436106101815760003560e01c806370a08231116100d1578063a22cb4651161008a578063d5abeb0111610064578063d5abeb011461054f578063e985e9c51461057a578063f0293fd3146105b7578063f2fde38b146105f457610181565b8063a22cb465146104c0578063b88d4fde146104e9578063c87b56dd1461051257610181565b806370a08231146103cf578063715018a61461040c57806385d178f4146104235780638da5cb5b1461044e57806395d89b4114610479578063a0712d68146104a457610181565b80632373ac221161013e57806342842e0e1161011857806342842e0e14610313578063453c23101461033c5780636352211e146103675780636817c76c146103a457610181565b80632373ac22146102aa57806323b872dd146102d35780633ccfd60b146102fc57610181565b80630116bc2d1461018657806301ffc9a7146101b157806306fdde03146101ee578063081812fc14610219578063095ea7b31461025657806318160ddd1461027f575b600080fd5b34801561019257600080fd5b5061019b61061d565b6040516101a89190612e42565b60405180910390f35b3480156101bd57600080fd5b506101d860048036038101906101d39190612779565b610630565b6040516101e59190612e42565b60405180910390f35b3480156101fa57600080fd5b50610203610712565b6040516102109190612e5d565b60405180910390f35b34801561022557600080fd5b50610240600480360381019061023b91906127d3565b6107a4565b60405161024d9190612d97565b60405180910390f35b34801561026257600080fd5b5061027d6004803603810190610278919061270c565b610829565b005b34801561028b57600080fd5b50610294610941565b6040516102a1919061315f565b60405180910390f35b3480156102b657600080fd5b506102d160048036038101906102cc919061274c565b610947565b005b3480156102df57600080fd5b506102fa60048036038101906102f591906125f6565b6109e0565b005b34801561030857600080fd5b50610311610a40565b005b34801561031f57600080fd5b5061033a600480360381019061033591906125f6565b610b8d565b005b34801561034857600080fd5b50610351610bad565b60405161035e919061315f565b60405180910390f35b34801561037357600080fd5b5061038e600480360381019061038991906127d3565b610bb3565b60405161039b9190612d97565b60405180910390f35b3480156103b057600080fd5b506103b9610c65565b6040516103c6919061315f565b60405180910390f35b3480156103db57600080fd5b506103f660048036038101906103f19190612589565b610c6b565b604051610403919061315f565b60405180910390f35b34801561041857600080fd5b50610421610d23565b005b34801561042f57600080fd5b50610438610dab565b6040516104459190612db2565b60405180910390f35b34801561045a57600080fd5b50610463610dd1565b6040516104709190612d97565b60405180910390f35b34801561048557600080fd5b5061048e610dfb565b60405161049b9190612e5d565b60405180910390f35b6104be60048036038101906104b991906127d3565b610e8d565b005b3480156104cc57600080fd5b506104e760048036038101906104e291906126cc565b6110c8565b005b3480156104f557600080fd5b50610510600480360381019061050b9190612649565b6110de565b005b34801561051e57600080fd5b50610539600480360381019061053491906127d3565b611140565b6040516105469190612e5d565b60405180910390f35b34801561055b57600080fd5b50610564611292565b604051610571919061315f565b60405180910390f35b34801561058657600080fd5b506105a1600480360381019061059c91906125b6565b611298565b6040516105ae9190612e42565b60405180910390f35b3480156105c357600080fd5b506105de60048036038101906105d99190612589565b61132c565b6040516105eb919061315f565b60405180910390f35b34801561060057600080fd5b5061061b60048036038101906106169190612589565b611344565b005b600e60009054906101000a900460ff1681565b60007f80ac58cd000000000000000000000000000000000000000000000000000000007bffffffffffffffffffffffffffffffffffffffffffffffffffffffff1916827bffffffffffffffffffffffffffffffffffffffffffffffffffffffff191614806106fb57507f5b5e139f000000000000000000000000000000000000000000000000000000007bffffffffffffffffffffffffffffffffffffffffffffffffffffffff1916827bffffffffffffffffffffffffffffffffffffffffffffffffffffffff1916145b8061070b575061070a82611452565b5b9050919050565b60606000805461072190613410565b80601f016020809104026020016040519081016040528092919081815260200182805461074d90613410565b801561079a5780601f1061076f5761010080835404028352916020019161079a565b820191906000526020600020905b81548152906001019060200180831161077d57829003601f168201915b5050505050905090565b60006107af826114bc565b6107ee576040517f08c379a00000000000000000000000000000000000000000000000000000000081526004016107e59061309f565b60405180910390fd5b6004600083815260200190815260200160002060009054906101000a900473ffffffffffffffffffffffffffffffffffffffff169050919050565b600061083482610bb3565b90508073ffffffffffffffffffffffffffffffffffffffff168373ffffffffffffffffffffffffffffffffffffffff1614156108a5576040517f08c379a000000000000000000000000000000000000000000000000000000000815260040161089c906130ff565b60405180910390fd5b8073ffffffffffffffffffffffffffffffffffffffff166108c4611528565b73ffffffffffffffffffffffffffffffffffffffff1614806108f357506108f2816108ed611528565b611298565b5b610932576040517f08c379a000000000000000000000000000000000000000000000000000000000815260040161092990612fdf565b60405180910390fd5b61093c8383611530565b505050565b600b5481565b61094f611528565b73ffffffffffffffffffffffffffffffffffffffff1661096d610dd1565b73ffffffffffffffffffffffffffffffffffffffff16146109c3576040517f08c379a00000000000000000000000000000000000000000000000000000000081526004016109ba906130bf565b60405180910390fd5b80600e60006101000a81548160ff02191690831515021790555050565b6109f16109eb611528565b826115e9565b610a30576040517f08c379a0000000000000000000000000000000000000000000000000000000008152600401610a279061311f565b60405180910390fd5b610a3b8383836116c7565b505050565b610a48611528565b73ffffffffffffffffffffffffffffffffffffffff16610a66610dd1565b73ffffffffffffffffffffffffffffffffffffffff1614610abc576040517f08c379a0000000000000000000000000000000000000000000000000000000008152600401610ab3906130bf565b60405180910390fd5b6000600e60019054906101000a900473ffffffffffffffffffffffffffffffffffffffff1673ffffffffffffffffffffffffffffffffffffffff1647604051610b0490612d82565b60006040518083038185875af1925050503d8060008114610b41576040519150601f19603f3d011682016040523d82523d6000602084013e610b46565b606091505b5050905080610b8a576040517f08c379a0000000000000000000000000000000000000000000000000000000008152600401610b819061313f565b60405180910390fd5b50565b610ba8838383604051806020016040528060008152506110de565b505050565b600d5481565b6000806002600084815260200190815260200160002060009054906101000a900473ffffffffffffffffffffffffffffffffffffffff169050600073ffffffffffffffffffffffffffffffffffffffff168173ffffffffffffffffffffffffffffffffffffffff161415610c5c576040517f08c379a0000000000000000000000000000000000000000000000000000000008152600401610c539061301f565b60405180910390fd5b80915050919050565b600a5481565b60008073ffffffffffffffffffffffffffffffffffffffff168273ffffffffffffffffffffffffffffffffffffffff161415610cdc576040517f08c379a0000000000000000000000000000000000000000000000000000000008152600401610cd390612fff565b60405180910390fd5b600360008373ffffffffffffffffffffffffffffffffffffffff1673ffffffffffffffffffffffffffffffffffffffff168152602001908152602001600020549050919050565b610d2b611528565b73ffffffffffffffffffffffffffffffffffffffff16610d49610dd1565b73ffffffffffffffffffffffffffffffffffffffff1614610d9f576040517f08c379a0000000000000000000000000000000000000000000000000000000008152600401610d96906130bf565b60405180910390fd5b610da9600061192e565b565b600e60019054906101000a900473ffffffffffffffffffffffffffffffffffffffff1681565b6000600760009054906101000a900473ffffffffffffffffffffffffffffffffffffffff16905090565b606060018054610e0a90613410565b80601f0160208091040260200160405190810160405280929190818152602001828054610e3690613410565b8015610e835780601f10610e5857610100808354040283529160200191610e83565b820191906000526020600020905b815481529060010190602001808311610e6657829003601f168201915b5050505050905090565b600e60009054906101000a900460ff16610edc576040517f08c379a0000000000000000000000000000000000000000000000000000000008152600401610ed390612ebf565b60405180910390fd5b600a5481610eea91906132ba565b3414610f2b576040517f08c379a0000000000000000000000000000000000000000000000000000000008152600401610f2290612e7f565b60405180910390fd5b600c5481600b54610f3c9190613233565b1115610f7d576040517f08c379a0000000000000000000000000000000000000000000000000000000008152600401610f7490612fbf565b60405180910390fd5b600d5481600f60003373ffffffffffffffffffffffffffffffffffffffff1673ffffffffffffffffffffffffffffffffffffffff16815260200190815260200160002054610fcb9190613233565b111561100c576040517f08c379a000000000000000000000000000000000000000000000000000000000815260040161100390612f1f565b60405180910390fd5b600061103760096040516020016110239190612d33565b6040516020818303038152906040526119f4565b905060008160405160200161104c9190612d60565b604051602081830303815290604052905060006110696008611b8c565b90506110753382611b9a565b61107f8183611bb8565b611089600861143c565b7febb98688741ffa4c7589bf325de30cf7becb63de567842e1ccdb6cb949fdc82c33826040516110ba929190612e19565b60405180910390a150505050565b6110da6110d3611528565b8383611c2c565b5050565b6110ef6110e9611528565b836115e9565b61112e576040517f08c379a00000000000000000000000000000000000000000000000000000000081526004016111259061311f565b60405180910390fd5b61113a84848484611d99565b50505050565b606061114b826114bc565b61118a576040517f08c379a00000000000000000000000000000000000000000000000000000000081526004016111819061307f565b60405180910390fd5b60006006600084815260200190815260200160002080546111aa90613410565b80601f01602080910402602001604051908101604052809291908181526020018280546111d690613410565b80156112235780601f106111f857610100808354040283529160200191611223565b820191906000526020600020905b81548152906001019060200180831161120657829003601f168201915b505050505090506000611234611df5565b905060008151141561124a57819250505061128d565b60008251111561127f578082604051602001611267929190612d0f565b6040516020818303038152906040529250505061128d565b61128884611e0c565b925050505b919050565b600c5481565b6000600560008473ffffffffffffffffffffffffffffffffffffffff1673ffffffffffffffffffffffffffffffffffffffff16815260200190815260200160002060008373ffffffffffffffffffffffffffffffffffffffff1673ffffffffffffffffffffffffffffffffffffffff16815260200190815260200160002060009054906101000a900460ff16905092915050565b600f6020528060005260406000206000915090505481565b61134c611528565b73ffffffffffffffffffffffffffffffffffffffff1661136a610dd1565b73ffffffffffffffffffffffffffffffffffffffff16146113c0576040517f08c379a00000000000000000000000000000000000000000000000000000000081526004016113b7906130bf565b60405180910390fd5b600073ffffffffffffffffffffffffffffffffffffffff168173ffffffffffffffffffffffffffffffffffffffff161415611430576040517f08c379a000000000000000000000000000000000000000000000000000000000815260040161142790612edf565b60405180910390fd5b6114398161192e565b50565b6001816000016000828254019250508190555050565b60007f01ffc9a7000000000000000000000000000000000000000000000000000000007bffffffffffffffffffffffffffffffffffffffffffffffffffffffff1916827bffffffffffffffffffffffffffffffffffffffffffffffffffffffff1916149050919050565b60008073ffffffffffffffffffffffffffffffffffffffff166002600084815260200190815260200160002060009054906101000a900473ffffffffffffffffffffffffffffffffffffffff1673ffffffffffffffffffffffffffffffffffffffff1614159050919050565b600033905090565b816004600083815260200190815260200160002060006101000a81548173ffffffffffffffffffffffffffffffffffffffff021916908373ffffffffffffffffffffffffffffffffffffffff160217905550808273ffffffffffffffffffffffffffffffffffffffff166115a383610bb3565b73ffffffffffffffffffffffffffffffffffffffff167f8c5be1e5ebec7d5bd14f71427d1e84f3dd0314c0f7b2291e5b200ac8c7c3b92560405160405180910390a45050565b60006115f4826114bc565b611633576040517f08c379a000000000000000000000000000000000000000000000000000000000815260040161162a90612f9f565b60405180910390fd5b600061163e83610bb3565b90508073ffffffffffffffffffffffffffffffffffffffff168473ffffffffffffffffffffffffffffffffffffffff1614806116ad57508373ffffffffffffffffffffffffffffffffffffffff16611695846107a4565b73ffffffffffffffffffffffffffffffffffffffff16145b806116be57506116bd8185611298565b5b91505092915050565b8273ffffffffffffffffffffffffffffffffffffffff166116e782610bb3565b73ffffffffffffffffffffffffffffffffffffffff161461173d576040517f08c379a000000000000000000000000000000000000000000000000000000000815260040161173490612eff565b60405180910390fd5b600073ffffffffffffffffffffffffffffffffffffffff168273ffffffffffffffffffffffffffffffffffffffff1614156117ad576040517f08c379a00000000000000000000000000000000000000000000000000000000081526004016117a490612f5f565b60405180910390fd5b6117b8838383611eb3565b6117c3600082611530565b6001600360008573ffffffffffffffffffffffffffffffffffffffff1673ffffffffffffffffffffffffffffffffffffffff16815260200190815260200160002060008282546118139190613314565b925050819055506001600360008473ffffffffffffffffffffffffffffffffffffffff1673ffffffffffffffffffffffffffffffffffffffff168152602001908152602001600020600082825461186a9190613233565b92505081905550816002600083815260200190815260200160002060006101000a81548173ffffffffffffffffffffffffffffffffffffffff021916908373ffffffffffffffffffffffffffffffffffffffff160217905550808273ffffffffffffffffffffffffffffffffffffffff168473ffffffffffffffffffffffffffffffffffffffff167fddf252ad1be2c89b69c2b068fc378daa952ba7f163c4a11628f55a4df523b3ef60405160405180910390a4611929838383611eb8565b505050565b6000600760009054906101000a900473ffffffffffffffffffffffffffffffffffffffff16905081600760006101000a81548173ffffffffffffffffffffffffffffffffffffffff021916908373ffffffffffffffffffffffffffffffffffffffff1602179055508173ffffffffffffffffffffffffffffffffffffffff168173ffffffffffffffffffffffffffffffffffffffff167f8be0079c531659141344cd1fd0a4f28419497f9722a3daafe3b4186f6b6457e060405160405180910390a35050565b60606000825190506000811415611a1d5760405180602001604052806000815250915050611b87565b60006003600283611a2e9190613233565b611a389190613289565b6004611a4491906132ba565b90506000602082611a559190613233565b67ffffffffffffffff811115611a6e57611a6d6135a9565b5b6040519080825280601f01601f191660200182016040528015611aa05781602001600182028036833780820191505090505b5090506000604051806060016040528060408152602001613ce7604091399050600181016020830160005b86811015611b445760038101905062ffffff818a015116603f8160121c168401518060081b905060ff603f83600c1c1686015116810190508060081b905060ff603f8360061c1686015116810190508060081b905060ff603f831686015116810190508060e01b90508084526004840193505050611acb565b506003860660018114611b5e5760028114611b6e57611b79565b613d3d60f01b6002830352611b79565b603d60f81b60018303525b508484525050819450505050505b919050565b600081600001549050919050565b611bb4828260405180602001604052806000815250611ebd565b5050565b611bc1826114bc565b611c00576040517f08c379a0000000000000000000000000000000000000000000000000000000008152600401611bf79061303f565b60405180910390fd5b80600660008481526020019081526020016000209080519060200190611c2792919061240d565b505050565b8173ffffffffffffffffffffffffffffffffffffffff168373ffffffffffffffffffffffffffffffffffffffff161415611c9b576040517f08c379a0000000000000000000000000000000000000000000000000000000008152600401611c9290612f7f565b60405180910390fd5b80600560008573ffffffffffffffffffffffffffffffffffffffff1673ffffffffffffffffffffffffffffffffffffffff16815260200190815260200160002060008473ffffffffffffffffffffffffffffffffffffffff1673ffffffffffffffffffffffffffffffffffffffff16815260200190815260200160002060006101000a81548160ff0219169083151502179055508173ffffffffffffffffffffffffffffffffffffffff168373ffffffffffffffffffffffffffffffffffffffff167f17307eab39ab6107e8899845ad3d59bd9653f200f220920489ca2b5937696c3183604051611d8c9190612e42565b60405180910390a3505050565b611da48484846116c7565b611db084848484611f18565b611def576040517f08c379a0000000000000000000000000000000000000000000000000000000008152600401611de690612e9f565b60405180910390fd5b50505050565b606060405180602001604052806000815250905090565b6060611e17826114bc565b611e56576040517f08c379a0000000000000000000000000000000000000000000000000000000008152600401611e4d906130df565b60405180910390fd5b6000611e60611df5565b90506000815111611e805760405180602001604052806000815250611eab565b80611e8a846120af565b604051602001611e9b929190612d0f565b6040516020818303038152906040525b915050919050565b505050565b505050565b611ec78383612210565b611ed46000848484611f18565b611f13576040517f08c379a0000000000000000000000000000000000000000000000000000000008152600401611f0a90612e9f565b60405180910390fd5b505050565b6000611f398473ffffffffffffffffffffffffffffffffffffffff166123ea565b156120a2578373ffffffffffffffffffffffffffffffffffffffff1663150b7a02611f62611528565b8786866040518563ffffffff1660e01b8152600401611f849493929190612dcd565b602060405180830381600087803b158015611f9e57600080fd5b505af1925050508015611fcf57506040513d601f19601f82011682018060405250810190611fcc91906127a6565b60015b612052573d8060008114611fff576040519150601f19603f3d011682016040523d82523d6000602084013e612004565b606091505b5060008151141561204a576040517f08c379a000000000000000000000000000000000000000000000000000000000815260040161204190612e9f565b60405180910390fd5b805181602001fd5b63150b7a0260e01b7bffffffffffffffffffffffffffffffffffffffffffffffffffffffff1916817bffffffffffffffffffffffffffffffffffffffffffffffffffffffff1916149150506120a7565b600190505b949350505050565b606060008214156120f7576040518060400160405280600181526020017f3000000000000000000000000000000000000000000000000000000000000000815250905061220b565b600082905060005b6000821461212957808061211290613473565b915050600a826121229190613289565b91506120ff565b60008167ffffffffffffffff811115612145576121446135a9565b5b6040519080825280601f01601f1916602001820160405280156121775781602001600182028036833780820191505090505b5090505b60008514612204576001826121909190613314565b9150600a8561219f91906134bc565b60306121ab9190613233565b60f81b8183815181106121c1576121c061357a565b5b60200101907effffffffffffffffffffffffffffffffffffffffffffffffffffffffffffff1916908160001a905350600a856121fd9190613289565b945061217b565b8093505050505b919050565b600073ffffffffffffffffffffffffffffffffffffffff168273ffffffffffffffffffffffffffffffffffffffff161415612280576040517f08c379a00000000000000000000000000000000000000000000000000000000081526004016122779061305f565b60405180910390fd5b612289816114bc565b156122c9576040517f08c379a00000000000000000000000000000000000000000000000000000000081526004016122c090612f3f565b60405180910390fd5b6122d560008383611eb3565b6001600360008473ffffffffffffffffffffffffffffffffffffffff1673ffffffffffffffffffffffffffffffffffffffff16815260200190815260200160002060008282546123259190613233565b92505081905550816002600083815260200190815260200160002060006101000a81548173ffffffffffffffffffffffffffffffffffffffff021916908373ffffffffffffffffffffffffffffffffffffffff160217905550808273ffffffffffffffffffffffffffffffffffffffff16600073ffffffffffffffffffffffffffffffffffffffff167fddf252ad1be2c89b69c2b068fc378daa952ba7f163c4a11628f55a4df523b3ef60405160405180910390a46123e660008383611eb8565b5050565b6000808273ffffffffffffffffffffffffffffffffffffffff163b119050919050565b82805461241990613410565b90600052602060002090601f01602090048101928261243b5760008555612482565b82601f1061245457805160ff1916838001178555612482565b82800160010185558215612482579182015b82811115612481578251825591602001919060010190612466565b5b50905061248f9190612493565b5090565b5b808211156124ac576000816000905550600101612494565b5090565b60006124c36124be8461319f565b61317a565b9050828152602081018484840111156124df576124de6135dd565b5b6124ea8482856133ce565b509392505050565b60008135905061250181613c8a565b92915050565b60008135905061251681613ca1565b92915050565b60008135905061252b81613cb8565b92915050565b60008151905061254081613cb8565b92915050565b600082601f83011261255b5761255a6135d8565b5b813561256b8482602086016124b0565b91505092915050565b60008135905061258381613ccf565b92915050565b60006020828403121561259f5761259e6135e7565b5b60006125ad848285016124f2565b91505092915050565b600080604083850312156125cd576125cc6135e7565b5b60006125db858286016124f2565b92505060206125ec858286016124f2565b9150509250929050565b60008060006060848603121561260f5761260e6135e7565b5b600061261d868287016124f2565b935050602061262e868287016124f2565b925050604061263f86828701612574565b9150509250925092565b60008060008060808587031215612663576126626135e7565b5b6000612671878288016124f2565b9450506020612682878288016124f2565b935050604061269387828801612574565b925050606085013567ffffffffffffffff8111156126b4576126b36135e2565b5b6126c087828801612546565b91505092959194509250565b600080604083850312156126e3576126e26135e7565b5b60006126f1858286016124f2565b925050602061270285828601612507565b9150509250929050565b60008060408385031215612723576127226135e7565b5b6000612731858286016124f2565b925050602061274285828601612574565b9150509250929050565b600060208284031215612762576127616135e7565b5b600061277084828501612507565b91505092915050565b60006020828403121561278f5761278e6135e7565b5b600061279d8482850161251c565b91505092915050565b6000602082840312156127bc576127bb6135e7565b5b60006127ca84828501612531565b91505092915050565b6000602082840312156127e9576127e86135e7565b5b60006127f784828501612574565b91505092915050565b6128098161335a565b82525050565b61281881613348565b82525050565b6128278161336c565b82525050565b6000612838826131e5565b61284281856131fb565b93506128528185602086016133dd565b61285b816135ec565b840191505092915050565b6000612871826131f0565b61287b8185613217565b935061288b8185602086016133dd565b612894816135ec565b840191505092915050565b60006128aa826131f0565b6128b48185613228565b93506128c48185602086016133dd565b80840191505092915050565b600081546128dd81613410565b6128e78186613228565b94506001821660008114612902576001811461291357612946565b60ff19831686528186019350612946565b61291c856131d0565b60005b8381101561293e5781548189015260018201915060208101905061291f565b838801955050505b50505092915050565b600061295c601083613217565b9150612967826135fd565b602082019050919050565b600061297f603283613217565b915061298a82613626565b604082019050919050565b60006129a2601383613217565b91506129ad82613675565b602082019050919050565b60006129c5602683613217565b91506129d08261369e565b604082019050919050565b60006129e8602583613217565b91506129f3826136ed565b604082019050919050565b6000612a0b601a83613217565b9150612a168261373c565b602082019050919050565b6000612a2e601c83613217565b9150612a3982613765565b602082019050919050565b6000612a51604983613228565b9150612a5c8261378e565b604982019050919050565b6000612a74602483613217565b9150612a7f82613803565b604082019050919050565b6000612a97601983613217565b9150612aa282613852565b602082019050919050565b6000612aba602c83613217565b9150612ac58261387b565b604082019050919050565b6000612add600883613217565b9150612ae8826138ca565b602082019050919050565b6000612b00603883613217565b9150612b0b826138f3565b604082019050919050565b6000612b23602a83613217565b9150612b2e82613942565b604082019050919050565b6000612b46602983613217565b9150612b5182613991565b604082019050919050565b6000612b69602e83613217565b9150612b74826139e0565b604082019050919050565b6000612b8c600283613228565b9150612b9782613a2f565b600282019050919050565b6000612baf602083613217565b9150612bba82613a58565b602082019050919050565b6000612bd2603183613217565b9150612bdd82613a81565b604082019050919050565b6000612bf5602c83613217565b9150612c0082613ad0565b604082019050919050565b6000612c18602083613217565b9150612c2382613b1f565b602082019050919050565b6000612c3b602f83613217565b9150612c4682613b48565b604082019050919050565b6000612c5e602183613217565b9150612c6982613b97565b604082019050919050565b6000612c81601d83613228565b9150612c8c82613be6565b601d82019050919050565b6000612ca460008361320c565b9150612caf82613c0f565b600082019050919050565b6000612cc7603183613217565b9150612cd282613c12565b604082019050919050565b6000612cea600f83613217565b9150612cf582613c61565b602082019050919050565b612d09816133c4565b82525050565b6000612d1b828561289f565b9150612d27828461289f565b91508190509392505050565b6000612d3e82612a44565b9150612d4a82846128d0565b9150612d5582612b7f565b915081905092915050565b6000612d6b82612c74565b9150612d77828461289f565b915081905092915050565b6000612d8d82612c97565b9150819050919050565b6000602082019050612dac600083018461280f565b92915050565b6000602082019050612dc76000830184612800565b92915050565b6000608082019050612de2600083018761280f565b612def602083018661280f565b612dfc6040830185612d00565b8181036060830152612e0e818461282d565b905095945050505050565b6000604082019050612e2e600083018561280f565b612e3b6020830184612d00565b9392505050565b6000602082019050612e57600083018461281e565b92915050565b60006020820190508181036000830152612e778184612866565b905092915050565b60006020820190508181036000830152612e988161294f565b9050919050565b60006020820190508181036000830152612eb881612972565b9050919050565b60006020820190508181036000830152612ed881612995565b9050919050565b60006020820190508181036000830152612ef8816129b8565b9050919050565b60006020820190508181036000830152612f18816129db565b9050919050565b60006020820190508181036000830152612f38816129fe565b9050919050565b60006020820190508181036000830152612f5881612a21565b9050919050565b60006020820190508181036000830152612f7881612a67565b9050919050565b60006020820190508181036000830152612f9881612a8a565b9050919050565b60006020820190508181036000830152612fb881612aad565b9050919050565b60006020820190508181036000830152612fd881612ad0565b9050919050565b60006020820190508181036000830152612ff881612af3565b9050919050565b6000602082019050818103600083015261301881612b16565b9050919050565b6000602082019050818103600083015261303881612b39565b9050919050565b6000602082019050818103600083015261305881612b5c565b9050919050565b6000602082019050818103600083015261307881612ba2565b9050919050565b6000602082019050818103600083015261309881612bc5565b9050919050565b600060208201905081810360008301526130b881612be8565b9050919050565b600060208201905081810360008301526130d881612c0b565b9050919050565b600060208201905081810360008301526130f881612c2e565b9050919050565b6000602082019050818103600083015261311881612c51565b9050919050565b6000602082019050818103600083015261313881612cba565b9050919050565b6000602082019050818103600083015261315881612cdd565b9050919050565b60006020820190506131746000830184612d00565b92915050565b6000613184613195565b90506131908282613442565b919050565b6000604051905090565b600067ffffffffffffffff8211156131ba576131b96135a9565b5b6131c3826135ec565b9050602081019050919050565b60008190508160005260206000209050919050565b600081519050919050565b600081519050919050565b600082825260208201905092915050565b600081905092915050565b600082825260208201905092915050565b600081905092915050565b600061323e826133c4565b9150613249836133c4565b9250827fffffffffffffffffffffffffffffffffffffffffffffffffffffffffffffffff0382111561327e5761327d6134ed565b5b828201905092915050565b6000613294826133c4565b915061329f836133c4565b9250826132af576132ae61351c565b5b828204905092915050565b60006132c5826133c4565b91506132d0836133c4565b9250817fffffffffffffffffffffffffffffffffffffffffffffffffffffffffffffffff0483118215151615613309576133086134ed565b5b828202905092915050565b600061331f826133c4565b915061332a836133c4565b92508282101561333d5761333c6134ed565b5b828203905092915050565b6000613353826133a4565b9050919050565b6000613365826133a4565b9050919050565b60008115159050919050565b60007fffffffff0000000000000000000000000000000000000000000000000000000082169050919050565b600073ffffffffffffffffffffffffffffffffffffffff82169050919050565b6000819050919050565b82818337600083830152505050565b60005b838110156133fb5780820151818401526020810190506133e0565b8381111561340a576000848401525b50505050565b6000600282049050600182168061342857607f821691505b6020821081141561343c5761343b61354b565b5b50919050565b61344b826135ec565b810181811067ffffffffffffffff8211171561346a576134696135a9565b5b80604052505050565b600061347e826133c4565b91507fffffffffffffffffffffffffffffffffffffffffffffffffffffffffffffffff8214156134b1576134b06134ed565b5b600182019050919050565b60006134c7826133c4565b91506134d2836133c4565b9250826134e2576134e161351c565b5b828206905092915050565b7f4e487b7100000000000000000000000000000000000000000000000000000000600052601160045260246000fd5b7f4e487b7100000000000000000000000000000000000000000000000000000000600052601260045260246000fd5b7f4e487b7100000000000000000000000000000000000000000000000000000000600052602260045260246000fd5b7f4e487b7100000000000000000000000000000000000000000000000000000000600052603260045260246000fd5b7f4e487b7100000000000000000000000000000000000000000000000000000000600052604160045260246000fd5b600080fd5b600080fd5b600080fd5b600080fd5b6000601f19601f8301169050919050565b7f77726f6e67206d696e742076616c756500000000000000000000000000000000600082015250565b7f4552433732313a207472616e7366657220746f206e6f6e20455243373231526560008201527f63656976657220696d706c656d656e7465720000000000000000000000000000602082015250565b7f6d696e74696e67206e6f7420656e61626c656400000000000000000000000000600082015250565b7f4f776e61626c653a206e6577206f776e657220697320746865207a65726f206160008201527f6464726573730000000000000000000000000000000000000000000000000000602082015250565b7f4552433732313a207472616e736665722066726f6d20696e636f72726563742060008201527f6f776e6572000000000000000000000000000000000000000000000000000000602082015250565b7f65786365656465642077616c6c6574206d696e74206c696d6974000000000000600082015250565b7f4552433732313a20746f6b656e20616c7265616479206d696e74656400000000600082015250565b7f7b226e616d65223a20224176616c616e6368652041564158222c20226465736360008201527f72697074696f6e223a2022412073756e736574207363656e6572792e222c202260208201527f696d616765223a20220000000000000000000000000000000000000000000000604082015250565b7f4552433732313a207472616e7366657220746f20746865207a65726f2061646460008201527f7265737300000000000000000000000000000000000000000000000000000000602082015250565b7f4552433732313a20617070726f766520746f2063616c6c657200000000000000600082015250565b7f4552433732313a206f70657261746f7220717565727920666f72206e6f6e657860008201527f697374656e7420746f6b656e0000000000000000000000000000000000000000602082015250565b7f736f6c64206f7574000000000000000000000000000000000000000000000000600082015250565b7f4552433732313a20617070726f76652063616c6c6572206973206e6f74206f7760008201527f6e6572206e6f7220617070726f76656420666f7220616c6c0000000000000000602082015250565b7f4552433732313a2062616c616e636520717565727920666f7220746865207a6560008201527f726f206164647265737300000000000000000000000000000000000000000000602082015250565b7f4552433732313a206f776e657220717565727920666f72206e6f6e657869737460008201527f656e7420746f6b656e0000000000000000000000000000000000000000000000602082015250565b7f45524337323155524953746f726167653a2055524920736574206f66206e6f6e60008201527f6578697374656e7420746f6b656e000000000000000000000000000000000000602082015250565b7f227d000000000000000000000000000000000000000000000000000000000000600082015250565b7f4552433732313a206d696e7420746f20746865207a65726f2061646472657373600082015250565b7f45524337323155524953746f726167653a2055524920717565727920666f722060008201527f6e6f6e6578697374656e7420746f6b656e000000000000000000000000000000602082015250565b7f4552433732313a20617070726f76656420717565727920666f72206e6f6e657860008201527f697374656e7420746f6b656e0000000000000000000000000000000000000000602082015250565b7f4f776e61626c653a2063616c6c6572206973206e6f7420746865206f776e6572600082015250565b7f4552433732314d657461646174613a2055524920717565727920666f72206e6f60008201527f6e6578697374656e7420746f6b656e0000000000000000000000000000000000602082015250565b7f4552433732313a20617070726f76616c20746f2063757272656e74206f776e6560008201527f7200000000000000000000000000000000000000000000000000000000000000602082015250565b7f646174613a6170706c69636174696f6e2f6a736f6e3b6261736536342c000000600082015250565b50565b7f4552433732313a207472616e736665722063616c6c6572206973206e6f74206f60008201527f776e6572206e6f7220617070726f766564000000000000000000000000000000602082015250565b7f7769746864726177206661696c65640000000000000000000000000000000000600082015250565b613c9381613348565b8114613c9e57600080fd5b50565b613caa8161336c565b8114613cb557600080fd5b50565b613cc181613378565b8114613ccc57600080fd5b50565b613cd8816133c4565b8114613ce357600080fd5b5056fe4142434445464748494a4b4c4d4e4f505152535455565758595a6162636465666768696a6b6c6d6e6f707172737475767778797a303132333435363738392b2fa2646970667358221220b4be17b62bce529ce8d3ddd2fb310ae49125ec83d3fccaefe34ece893d114b5264736f6c63430008070033",
    "linkReferences": {},
    "deployedLinkReferences": {}
}